:030000000209F8FA
:0C09F800787FE4F6D8FD75810B020A3F01
:0C0A9400010B00010900010800010A002C
:100A8400758901758CD8758AEFD2A9D2AFD28C2220
:080AA10075A0FE120A8480FE1C
:03000B00020800E8
:10080000C0E0C0F0C083C082C0D075D000C000C0BE
:1008100001C002C003C004C005C006C007758CD863
:10082000758AEF050BAC0BE41209B6E4FBFA7944C8
:10083000784212093360054003020918750B00E580
:10084000087040E50A7014E5A025E04401F5A0E534
:10085000A0B47F19750A0105098012E5A0C31344ED
:1008600080F5A0E5A0B4FE05750A000509E509C3F9
:100870009404500302090D750801750900750A00FA
:1008800002090DE508B4011CE509700775A0FF0514
:1008900009807A63A0FF0509E509C39404406E75D9
:1008A00008028066E50864027063E50970070509BF
:1008B00075A07E8058E50A7025E5A0C3134480C466
:1008C000540FC454F0FFE5A025E04401540F4FF548
:1008D000A0E5A064E77029750A0105098022E5A05A
:1008E00025E04410C4540FC454F0FFE5A0C31344E2
:1008F00008540F4FF5A0E5A0B47E05750A00050960
:10090000E509D394044006750803750900E508B4A9
:10091000030675A0FE750800D007D006D005D004E8
:10092000D003D002D001D000D0D0D082D083D0F07C
:03093000D0E032E2
:1009330074F8CC6480CCC86480C8F58204604FC36B
:10094300EB9FF5F0EA9E42F0E99D42F0E89C45F00A
:10095300603C501DE5825FFFE582D313CB5BCBF494
:100963002B5582FB50280ABA002409B900200880BD
:100973001DE5825BFBE582D313CF5FCFF4C3132F57
:100983005582FF50090EBE00050DBD00010CC3EBDF
:100993009FF5F0EA9E42F0E99D42F0E89C45F06045
:0909A30007CC4820E701B3EC2267
:1009AC0075F020800E75F010800575F0087D007EC6
:1009BC00007F003392D530D5031209EAEC33401096
:1009CC00EF33FFEE33FEED33FDEC33FCD5F0ED22CF
:0E09DC00E5F0247EA2D513CC92E7CDCEFF220B
:100A0400020AA1E493A3F8E493A34003F68001F25D
:100A140008DFF48029E493A3F85407240CC8C333F3
:100A2400C4540F4420C8834004F456800146F6DFC2
:100A3400E4800B0102040810204080900A94E47EB4
:100A4400019360BCA3FF543F30E509541FFEE493B7
:100A5400A360010ECF54C025E060A840B8E493A37E
:100A6400FAE493A3F8E493A3C8C582C8CAC583CAA9
:100A7400F0A3C8C582C8CAC583CADFE9DEE780BE61
:010AA0000055
:0E09EA00C3E49FFFE49EFEE49DFDE49CFC221E
:00000001FF
