:030000000208F300
:0C08F300787FE4F6D8FD75810B02093A0D
:0C099D00010B00010900010800010A0024
:0D098F007FA77EAB7D10DDFEDEFADFF600F7
:01099C002238
:10097F00758901758CD8758AEFD2A9D2AFD28C2226
:0809AA0075A0FE12097F80FE1A
:03000B00020800E8
:10080000C0E0C0D075D000C007758CD8758AEF05E0
:100810000BE50BC3941350030208EC750B00E508BD
:100820007040E50A7014E5A025E04401F5A0E5A0BC
:10083000B47F19750A0105098012E5A0C31344802D
:10084000F5A0E5A0B4FE05750A000509E509C39405
:100850000250030208EC750801750900750A0002D0
:1008600008ECE508B4011FE509700775A0FF05094C
:10087000807A63A0FF0509E509C39402406E7508FC
:10088000027509008066E50864027060E50970077A
:10089000050975A07E8055E50A7025E5A0C31344BF
:1008A00080C4540FC454F0FFE5A025E04401540F68
:1008B0004FF5A0E5A064E77029750A0105098022BB
:1008C000E5A025E04410C4540FC454F0FFE5A0C3D4
:1008D000134408540F4FF5A0E5A0B47E05750A0037
:1008E0000509E509D394024003750803D007D0D069
:0308F000D0E03223
:1008FF000209AAE493A3F8E493A34003F68001F25C
:10090F0008DFF48029E493A3F85407240CC8C333F9
:10091F00C4540F4420C8834004F456800146F6DFC8
:10092F00E4800B010204081020408090099DE47EB2
:10093F00019360BCA3FF543F30E509541FFEE493BD
:10094F00A360010ECF54C025E060A840B8E493A384
:10095F00FAE493A3F8E493A3C8C582C8CAC583CAAF
:10096F00F0A3C8C582C8CAC583CADFE9DEE780BE67
:0109A900004D
:00000001FF
